:100000000C942A000C9434000C9434000C943400AA
:100010000C9434000C9434000C9434000C94340090
:100020000C9434000C9434000C9434000C94340080
:100030000C9434000C9434000C9434000C94340070
:100040000C9434000C9434000C9434000C94340060
:100050000C94340011241FBECFE5D8E0DEBFCDBF25
:100060000E9436000C949E010C940000CF93DF9305
:10007000CDB7DEB727970FB6F894DEBF0FBECDBF62
:1000800061E088E00E945F0019821A8260E080E0EF
:100090000E945F00CE0101960E943A0180E00E941A
:1000A000E0008F838F810E9499012FEF80E792E01B
:1000B000215080409040E1F700C00000EFCF883031
:1000C000E8F461110EC04AB321E030E0B90102C08A
:1000D000660F771F8A95E2F7CB01809584238ABB50
:1000E00008954AB321E030E0B90102C0660F771FDE
:1000F0008A95E2F7CB01842B8ABB089598EF980F7D
:100100009830E8F461110EC047B321E030E0B90146
:1001100002C0660F771F9A95E2F7CB018095842382
:1001200087BB089547B321E030E0B90102C0660FF4
:10013000771F9A95E2F7CB01842B87BB089590EF48
:10014000980F9830E8F461110EC044B321E030E01C
:10015000B90102C0660F771F9A95E2F7CB0180952F
:10016000842384BB089544B321E030E0B90102C088
:10017000660F771F9A95E2F7CB01842B84BB089515
:1001800088518830E0F461110EC041B321E030E0C5
:10019000B90102C0660F771F8A95E2F7CB018095FF
:1001A000842381BB089541B321E030E0B90102C04E
:1001B000660F771F8A95E2F7CB01842B81BB0895E8
:1001C0008830A0F449B321E030E0082E02C0220FAD
:1001D000331F0A94E2F750E024233523A90102C01B
:1001E000559547958A95E2F7CA01089548EF480F5B
:1001F000483090F426B381E090E0042E02C0880FCE
:10020000991F0A94E2F730E08223932302C0959568
:1002100087954A95E2F7089540EF480F483090F4EB
:1002200023B381E090E0042E02C0880F991F0A9446
:10023000E2F730E08223932302C0959587954A9593
:10024000E2F7089548EE480F483090F420B381E07B
:1002500090E0042E02C0880F991F0A94E2F730E064
:100260008223932302C0959587954A95E2F70895D6
:1002700080E00895CF93DF93FC012081223008F0C5
:1002800052C03181343008F050C0EC01222319F003
:10029000213099F023C061E08CE00E945F0061E0B2
:1002A0008DE00E945F0060E08EE00E945F0061E0F0
:1002B0008FE00E945F006C9A11C060E08CE00E94A9
:1002C0005F0060E08DE00E945F0061E08EE00E94D0
:1002D0005F0060E08FE00E945F006C988981813050
:1002E00061F028F0823071F0833089F016C08DB152
:1002F0008C7F8DB98DB18DB910C08DB18C7F8DB9CA
:10030000689A0BC08DB18C7F8DB9699A06C08DB18A
:100310008C7F8DB98DB183608DB96B986A986D981B
:100320006E9A80E003C081E001C082E0DF91CF914E
:1003300008958FB9779BFECF81E00895F894FFCFA1
:00000001FF
