S00F00005350495F4D43322E7372656308
S11300000C942A000C9434000C9434000C943400A6
S11300100C9434000C9434000C9434000C9434008C
S11300200C9434000C9434000C9434000C9434007C
S11300300C9434000C9434000C9434000C9434006C
S11300400C9434000C9434000C9434000C9434005C
S11300500C94340011241FBECFE5D8E0DEBFCDBF21
S11300600E9438010C94BC010C9400008830E8F420
S113007061110EC04AB321E030E0B90102C0660F3D
S1130080771F8A95E2F7CB01809584238ABB089574
S11300904AB321E030E0B90102C0660F771F8A95A8
S11300A0E2F7CB01842B8ABB089598EF980F983020
S11300B0E8F461110EC047B321E030E0B90102C099
S11300C0660F771F9A95E2F7CB018095842387BB4F
S11300D0089547B321E030E0B90102C0660F771FED
S11300E09A95E2F7CB01842B87BB089590EF980F84
S11300F09830E8F461110EC044B321E030E0B90156
S113010002C0660F771F9A95E2F7CB01809584238E
S113011084BB089544B321E030E0B90102C0660F06
S1130120771F9A95E2F7CB01842B84BB08958851FD
S11301308830E0F461110EC041B321E030E0B90130
S113014002C0660F771F8A95E2F7CB01809584235E
S113015081BB089541B321E030E0B90102C0660FCC
S1130160771F8A95E2F7CB01842B81BB08958830F1
S1130170E8F461110EC04BB321E030E0B90102C0D4
S1130180660F771F8A95E2F7CB01809584238BBB9A
S113019008954BB321E030E0B90102C0660F771F28
S11301A08A95E2F7CB01842B8BBB089598EF980FC7
S11301B09830E8F461110EC048B321E030E0B90191
S11301C002C0660F771F9A95E2F7CB0180958423CE
S11301D088BB089548B321E030E0B90102C0660F3E
S11301E0771F9A95E2F7CB01842B88BB089590EF93
S11301F0980F9830E8F461110EC045B321E030E067
S1130200B90102C0660F771F9A95E2F7CB0180957A
S1130210842385BB089545B321E030E0B90102C0D1
S1130220660F771F9A95E2F7CB01842B85BB08955F
S113023088518830E0F461110EC042B321E030E00F
S1130240B90102C0660F771F8A95E2F7CB0180954A
S1130250842382BB089542B321E030E0B90102C097
S1130260660F771F8A95E2F7CB01842B82BB089532
S1130270CF93DF9300D000D000D0CDB7DEB781E0BC
S113028089831A8261E080E00E943600CE010196E3
S11302900E9459010E94B801813029F461E080E094
S11302A00E94B700F7CF8111F5CF60E00E94B7003C
S11302B0F1CFCF93DF93FC012081223008F052C0AC
S11302C03181343008F050C0EC01222319F0213080
S11302D099F023C061E08CE00E94360061E08DE07B
S11302E00E94360060E08EE00E94360061E08FE0FC
S11302F00E9436006C9A11C060E08CE00E943600C7
S113030060E08DE00E94360061E08EE00E943600DD
S113031060E08FE00E9436006C988981813061F042
S113032028F0823071F0833089F016C08DB18C7F53
S11303308DB98DB18DB910C08DB18C7F8DB9689A8E
S11303400BC08DB18C7F8DB9699A06C08DB18C7F3D
S11303508DB98DB183608DB96B986A986D986E9ADA
S113036080E003C081E001C082E0DF91CF91089575
S10F0370779BFECF8FB10895F894FFCF67
S9030000FC
