:100000000C942A000C9447000C9447000C94470071
:100010000C9447000C9447000C9447000C94470044
:100020000C9447000C9447000C9447000C94470034
:100030000C9447000C9485010C94BB010C94470070
:100040000C9447000C9447000C9447000C94470014
:100050000C94470011241FBECFE5D8E0DEBFCDBF12
:1000600010E0A0E6B0E0E8E8F5E002C005900D92EF
:10007000A636B107D9F720E0A6E6B0E001C01D9290
:10008000A936B207E1F70E944B010C94C2020C940E
:1000900000008830E8F461110EC04AB321E030E07E
:1000A000B90102C0660F771F8A95E2F7CB018095F0
:1000B00084238ABB08954AB321E030E0B90102C02D
:1000C000660F771F8A95E2F7CB01842B8ABB0895D0
:1000D00098EF980F9830E8F461110EC047B321E013
:1000E00030E0B90102C0660F771F9A95E2F7CB01A5
:1000F0008095842387BB089547B321E030E0B901A0
:1001000002C0660F771F9A95E2F7CB01842B87BB5D
:10011000089590EF980F9830E8F461110EC044B341
:1001200021E030E0B90102C0660F771F9A95E2F72F
:10013000CB018095842384BB089544B321E030E053
:10014000B90102C0660F771F9A95E2F7CB01842BA5
:1001500084BB089588518830E0F461110EC041B32A
:1001600021E030E0B90102C0660F771F8A95E2F7FF
:10017000CB018095842381BB089541B321E030E019
:10018000B90102C0660F771F8A95E2F7CB01842B75
:1001900081BB08958830E8F461110EC04BB321E0B3
:1001A00030E0B90102C0660F771F8A95E2F7CB01F4
:1001B000809584238BBB08954BB321E030E0B901D7
:1001C00002C0660F771F8A95E2F7CB01842B8BBBA9
:1001D000089598EF980F9830E8F461110EC048B375
:1001E00021E030E0B90102C0660F771F9A95E2F76F
:1001F000CB018095842388BB089548B321E030E08B
:10020000B90102C0660F771F9A95E2F7CB01842BE4
:1002100088BB089590EF980F9830E8F461110EC0F4
:1002200045B321E030E0B90102C0660F771F9A950F
:10023000E2F7CB018095842385BB089545B321E087
:1002400030E0B90102C0660F771F9A95E2F7CB0143
:10025000842B85BB089588518830E0F461110EC06D
:1002600042B321E030E0B90102C0660F771F8A95E2
:10027000E2F7CB018095842382BB089542B321E04D
:1002800030E0B90102C0660F771F8A95E2F7CB0113
:10029000842B82BB0895CF93DF93CDB7DEB727972A
:1002A0000FB6F894DEBF0FBECDBF61E08CE00E94B8
:1002B000490061E08DE00E94490060E080E00E941A
:1002C000CA0061E084E10E94490061E086E10E9489
:1002D000490086E0E0E6F0E0DE01119601900D9223
:1002E0008A95E1F7CE0101960E94F1011F82CE01AD
:1002F00007960E9490022FEF89E698E121508040F6
:100300009040E1F700C00000F2CF1F920F920FB6AD
:100310000F9211242F933F934F935F936F937F938B
:100320008F939F93AF93BF93EF93FF93809166005A
:10033000813039F461E086E10E94CA0010926600C3
:1003400009C0809166008F5F8093660060E086E15F
:100350000E94CA00FF91EF91BF91AF919F918F9141
:100360007F916F915F914F913F912F910F900FBEB1
:100370000F901F9018951F920F920FB60F92112495
:100380002F933F934F935F936F937F938F939F939D
:10039000AF93BF93EF93FF9380916700813039F45F
:1003A00061E084E10E94CA001092670009C0809158
:1003B00067008F5F8093670060E084E10E94CA005D
:1003C000FF91EF91BF91AF919F918F917F916F912D
:1003D0005F914F913F912F910F900FBE0F901F9003
:1003E0001895CF92DF92EF92FF92CF93DF93EC01BB
:1003F000C880D980EA80FB8080E6C81689E0D806EC
:10040000E104F10408F47EC0C701B6012CE231E03A
:1004100040E050E00E94A002672B682B692B09F096
:1004200073C08C818550853008F070C08D8182301A
:1004300008F06EC0D701C601880F991FAA1FBB1F05
:10044000880F991FAA1FBB1F9C01AD01220F331FEC
:10045000441F551F220F331F441F551F60E072E1D8
:100460008AE790E00E94A00221503109539A549AE1
:100470008C818730D9F028F4853041F0863071F0D6
:100480002CC08830D9F0893009F127C080B58D7F24
:1004900080BD80B58B7F80BD52981FC080B58260C3
:1004A00080BD80B58B7F80BD529817C080B58D7F91
:1004B00080BD80B5846080BD52980FC080B58260D9
:1004C00080BD80B5846080BD529807C080B58260D1
:1004D00080BD80B5846080BD529A80B5877F80BD25
:1004E0008D81811105C0109268007894549A03C0E0
:1004F00081E08093680080B5806880BD29B9C79A83
:1005000080E007C081E005C081E003C081E001C058
:1005100081E0DF91CF91FF90EF90DF90CF90089531
:10052000FC0190916800911105C05F9B07C08CB1E0
:10053000808304C05F9BFECF8CB1808381E00895EF
:10054000A1E21A2EAA1BBB1BFD010DC0AA1FBB1FD7
:10055000EE1FFF1FA217B307E407F50720F0A21B49
:10056000B30BE40BF50B661F771F881F991F1A94B6
:1005700069F760957095809590959B01AC01BD01E0
:08058000CF010895F894FFCFAC
:06058800802500000800C0
:00000001FF
