S00B00004D43322E7372656357
S11300000C942A000C943F000C943F000C943F0085
S11300100C943F000C943F000C943F000C943F0060
S11300200C943F000C943F000C943F000C943F0050
S11300300C943F000C943F000C943F000C943F0040
S11300400C943F000C943F000C943F000C943F0030
S11300500C943F0011241FBECFE5D8E0DEBFCDBF16
S113006010E0A0E6B0E0E0EAF4E002C005900D92F2
S1130070A636B107D9F70E9443010C944E020C94A2
S113008000008830E8F461110EC04AB321E030E08A
S1130090B90102C0660F771F8A95E2F7CB018095FC
S11300A084238ABB08954AB321E030E0B90102C039
S11300B0660F771F8A95E2F7CB01842B8ABB0895DC
S11300C098EF980F9830E8F461110EC047B321E01F
S11300D030E0B90102C0660F771F9A95E2F7CB01B1
S11300E08095842387BB089547B321E030E0B901AC
S11300F002C0660F771F9A95E2F7CB01842B87BB6A
S1130100089590EF980F9830E8F461110EC044B34D
S113011021E030E0B90102C0660F771F9A95E2F73B
S1130120CB018095842384BB089544B321E030E05F
S1130130B90102C0660F771F9A95E2F7CB01842BB1
S113014084BB089588518830E0F461110EC041B336
S113015021E030E0B90102C0660F771F8A95E2F70B
S1130160CB018095842381BB089541B321E030E025
S1130170B90102C0660F771F8A95E2F7CB01842B81
S113018081BB08958830E8F461110EC04BB321E0BF
S113019030E0B90102C0660F771F8A95E2F7CB0100
S11301A0809584238BBB08954BB321E030E0B901E3
S11301B002C0660F771F8A95E2F7CB01842B8BBBB5
S11301C0089598EF980F9830E8F461110EC048B381
S11301D021E030E0B90102C0660F771F9A95E2F77B
S11301E0CB018095842388BB089548B321E030E097
S11301F0B90102C0660F771F9A95E2F7CB01842BF1
S113020088BB089590EF980F9830E8F461110EC000
S113021045B321E030E0B90102C0660F771F9A951B
S1130220E2F7CB018095842385BB089545B321E093
S113023030E0B90102C0660F771F9A95E2F7CB014F
S1130240842B85BB089588518830E0F461110EC079
S113025042B321E030E0B90102C0660F771F8A95EE
S1130260E2F7CB018095842382BB089542B321E059
S113027030E0B90102C0660F771F8A95E2F7CB011F
S1130280842B82BB0895CF93DF93CDB7DEB7279736
S11302900FB6F894DEBF0FBECDBF61E08CE00E94C4
S11302A0410061E08DE00E94410060E080E00E9436
S11302B0C20086E0E0E6F0E0DE01129601900D92C5
S11302C08A95E1F7CE0102960E948B01CE01019638
S11302D00E9425028981813049F461E08CE00E940A
S11302E0C20060E08DE00E94C2000BC089818230B0
S11302F041F461E08DE00E94C20060E08CE00E9465
S1130300C2002FEF83ED90E3215080409040E1F74D
S113031000C00000DBCFCF92DF92EF92FF92CF9329
S1130320DF93EC01C880D980EA80FB8080E6C816A0
S113033089E0D806E104F10408F479C0C701B601E4
S11303402CE231E040E050E00E942C02672B682B45
S1130350692B09F06EC08C818550853008F06BC024
S11303608D81823008F069C0D701C601880F991FBA
S1130370AA1FBB1F880F991FAA1FBB1F9C01AD0199
S1130380220F331F441F551F220F331F441F551FB5
S113039060E072E18AE790E00E942C02215031096A
S11303A0539A549A8C818730D9F028F4853041F0DF
S11303B0863071F02CC08830D9F0893009F127C01B
S11303C080B58D7F80BD80B58B7F80BD52981FC066
S11303D080B5826080BD80B58B7F80BD529817C088
S11303E080B58D7F80BD80B5846080BD52980FC07C
S11303F080B5826080BD80B5846080BD529807C09E
S113040080B5826080BD80B5846080BD529A80B51D
S1130410877F80BD8D81811103C0569A549A559A65
S113042080B5806880BD29B9C79A80E007C081E0A3
S113043005C081E003C081E001C081E0DF91CF917C
S1130440FF90EF90DF90CF9008955F9BFECF2CB18B
S1130450FC01208381E00895A1E21A2EAA1BBB1B94
S1130460FD010DC0AA1FBB1FEE1FFF1FA217B3077C
S1130470E407F50720F0A21BB30BE40BF50B661F92
S1130480771F881F991F1A9469F760957095809556
S113049090959B01AC01BD01CF010895F894FFCF65
S10904A0802500000801A4
S9030000FC
